:100000000C942A000C9447000C9447000C94470071
:100010000C9447000C9447000C9447000C94470044
:100020000C9447000C9447000C9447000C94470034
:100030000C9447000C9447000C9447000C94470024
:100040000C9447000C9447000C9447000C94470014
:100050000C94470011241FBECFE5D8E0DEBFCDBF12
:1000600012E0A0E6B0E0EAE0F3E002C005900D92F5
:10007000A036B107D9F722E0A0E6B2E001C01D9298
:10008000A038B207E1F70E9449000C9483010C9458
:10009000000080EE8ABB8FEF81BBE0E6F2E080E0FB
:1000A00081938F5F8031E1F78FE08093670241E0B9
:1000B00050E090E06FE089B3282F217030E0869502
:1000C00081704130510509F005C12115310509F054
:1000D00001C1E92FF0E0EE0FFF1FE05AFF4F408112
:1000E00051819F5F852F82958F70FA01EE27FF70F7
:1000F000CF2FDD27FA01E07FFF27DF01B295A29520
:10010000AF70AB27BF70AB27042F0F7081110DC0EC
:10011000E02FF0E0E05AFD4FA05ABD4FC05ADD4F2E
:100120005C91888185238083D7C0813041F4A05AB7
:10013000BD4FC05ADD4F888180238C93CDC0823063
:1001400069F4083008F00051C05ADD4FA05ABD4F85
:1001500058814C915413C0C0900FBEC0833041F4FD
:10016000529542954F7045275F704527942FB4C034
:10017000843071F4083008F00051C05ADD4FA05AA5
:10018000BD4F48818C91481709F4A6C0900FA4C0B8
:10019000853069F410E0F801E05AFD4FC05ADD4F98
:1001A000A05ABD4F88814C91841B808395C08630B6
:1001B00059F4083008F00051A05ABD4FC05ADD4F25
:1001C0008881801B8C9388C0873059F4083008F0F0
:1001D0000051A05ABD4FC05ADD4F8881080F0C93C3
:1001E0007BC0883061F4A05ABD4FC05ADD4F888172
:1001F0008F7001C0880F0A95EAF78C936DC0893023
:1002000071F410E0005A1D4FFD01E05AFD4FC05A35
:10021000DD4F50818881852BF80180835DC08A3055
:1002200071F410E0005A1D4FFD01E05AFD4FC05A15
:10023000DD4F50818881850FF80180834DC08B3060
:1002400041F4A05ABD4FC05ADD4F8881082B0C9352
:1002500043C08C3069F4A05ABD4FC05ADD4FC881ED
:10026000C00FCF70D0E0C059DD4F88818C9334C06F
:100270008D3071F4A05ABD4FC05ADD4F48814F7088
:1002800050E002C0559547950A95E2F74C9324C07B
:100290008E3079F410E0005A1D4FFD01E05AFD4FF9
:1002A000C05ADD4F50818881852B8627F8018083D5
:1002B00013C08F3089F4FE01E05AFD4FC081C00F9A
:1002C000CF70D0E0C059DD4FFD01E05AFD4F808175
:1002D000888302C0811190E0E9B3EC71F0E0F695FB
:1002E000E795F695E795E05AFD4F80818F7082BBC8
:1002F000FFE946E851E0F15040405040E1F700C0CE
:0A0300000000A901D8CEF894FFCF49
:10030A002370357031A234A1527423F322824164DE
:10031A0021247032000041D422C441025391203278
:10032A00000010F7716730F7716715B1717710C760
:10033A00361362C360F77167717730C733E3717739
:10034A0030C7703200001143136100000031000011
:10035A000000000000000000000000000000000093
:10036A000000000000000000000000000000000083
:10037A000000000000000000000000000000000073
:10038A000000000000000000000000000000000063
:10039A000000000000000000000000000000000053
:1003AA000000000000000000000000000000000043
:1003BA000000000000000000000000000000000033
:1003CA000000000000000000000000000000000023
:1003DA000000000000000000000000000000000013
:1003EA000000000000000000000000000000000003
:1003FA0000000000000000000000000000000000F3
:10040A0000000000000000000000000000000000E2
:10041A0000000000000000000000000000000000D2
:10042A0000000000000000000000000000000000C2
:10043A0000000000000000000000000000000000B2
:10044A0000000000000000000000000000000000A2
:10045A000000000000000000000000000000000092
:10046A000000000000000000000000000000000082
:10047A000000000000000000000000000000000072
:10048A000000000000000000000000000000000062
:10049A000000000000000000000000000000000052
:1004AA000000000000000000000000000000000042
:1004BA000000000000000000000000000000000032
:1004CA000000000000000000000000000000000022
:1004DA000000000000000000000000000000000012
:1004EA000000000000000000000000000000000002
:1004FA0000000000000000000000000000000000F2
:00000001FF
